{
	"contracts/Tut2.sol": {
		"tut2": {
			"abi": [
				{
					"inputs": [
						{
							"internalType": "uint256",
							"name": "_favNumber",
							"type": "uint256"
						},
						{
							"internalType": "string",
							"name": "_name",
							"type": "string"
						}
					],
					"name": "addPerson",
					"outputs": [],
					"stateMutability": "nonpayable",
					"type": "function"
				},
				{
					"inputs": [
						{
							"internalType": "uint256",
							"name": "",
							"type": "uint256"
						}
					],
					"name": "people",
					"outputs": [
						{
							"internalType": "uint256",
							"name": "favNum",
							"type": "uint256"
						},
						{
							"internalType": "string",
							"name": "name",
							"type": "string"
						}
					],
					"stateMutability": "view",
					"type": "function"
				}
			],
			"devdoc": {
				"kind": "dev",
				"methods": {},
				"version": 1
			},
			"evm": {
				"assembly": "    /* \"contracts/Tut2.sol\":57:311  contract tut2 {\r... */\n  mstore(0x40, 0x80)\n  callvalue\n  dup1\n  iszero\n  tag_1\n  jumpi\n  0x00\n  dup1\n  revert\ntag_1:\n  pop\n  dataSize(sub_0)\n  dup1\n  dataOffset(sub_0)\n  0x00\n  codecopy\n  0x00\n  return\nstop\n\nsub_0: assembly {\n        /* \"contracts/Tut2.sol\":57:311  contract tut2 {\r... */\n      mstore(0x40, 0x80)\n      callvalue\n      dup1\n      iszero\n      tag_1\n      jumpi\n      0x00\n      dup1\n      revert\n    tag_1:\n      pop\n      jumpi(tag_2, lt(calldatasize, 0x04))\n      shr(0xe0, calldataload(0x00))\n      dup1\n      0x9e7a13ad\n      eq\n      tag_3\n      jumpi\n      dup1\n      0xbc832d4e\n      eq\n      tag_4\n      jumpi\n    tag_2:\n      0x00\n      dup1\n      revert\n        /* \"contracts/Tut2.sol\":153:175  Person[] public people */\n    tag_3:\n      tag_5\n      0x04\n      dup1\n      calldatasize\n      sub\n      dup2\n      add\n      swap1\n      tag_6\n      swap2\n      swap1\n      tag_7\n      jump\t// in\n    tag_6:\n      tag_8\n      jump\t// in\n    tag_5:\n      mload(0x40)\n      tag_9\n      swap3\n      swap2\n      swap1\n      tag_10\n      jump\t// in\n    tag_9:\n      mload(0x40)\n      dup1\n      swap2\n      sub\n      swap1\n      return\n        /* \"contracts/Tut2.sol\":184:308  function addPerson(uint256 _favNumber, string memory _name) public {\r... */\n    tag_4:\n      tag_11\n      0x04\n      dup1\n      calldatasize\n      sub\n      dup2\n      add\n      swap1\n      tag_12\n      swap2\n      swap1\n      tag_13\n      jump\t// in\n    tag_12:\n      tag_14\n      jump\t// in\n    tag_11:\n      stop\n        /* \"contracts/Tut2.sol\":153:175  Person[] public people */\n    tag_8:\n      0x00\n      dup2\n      dup2\n      sload\n      dup2\n      lt\n      tag_15\n      jumpi\n      0x00\n      dup1\n      revert\n    tag_15:\n      swap1\n      0x00\n      mstore\n      keccak256(0x00, 0x20)\n      swap1\n      0x02\n      mul\n      add\n      0x00\n      swap2\n      pop\n      swap1\n      pop\n      dup1\n      0x00\n      add\n      sload\n      swap1\n      dup1\n      0x01\n      add\n      dup1\n      sload\n      tag_17\n      swap1\n      tag_18\n      jump\t// in\n    tag_17:\n      dup1\n      0x1f\n      add\n      0x20\n      dup1\n      swap2\n      div\n      mul\n      0x20\n      add\n      mload(0x40)\n      swap1\n      dup2\n      add\n      0x40\n      mstore\n      dup1\n      swap3\n      swap2\n      swap1\n      dup2\n      dup2\n      mstore\n      0x20\n      add\n      dup3\n      dup1\n      sload\n      tag_19\n      swap1\n      tag_18\n      jump\t// in\n    tag_19:\n      dup1\n      iszero\n      tag_20\n      jumpi\n      dup1\n      0x1f\n      lt\n      tag_21\n      jumpi\n      0x0100\n      dup1\n      dup4\n      sload\n      div\n      mul\n      dup4\n      mstore\n      swap2\n      0x20\n      add\n      swap2\n      jump(tag_20)\n    tag_21:\n      dup3\n      add\n      swap2\n      swap1\n      0x00\n      mstore\n      keccak256(0x00, 0x20)\n      swap1\n    tag_22:\n      dup2\n      sload\n      dup2\n      mstore\n      swap1\n      0x01\n      add\n      swap1\n      0x20\n      add\n      dup1\n      dup4\n      gt\n      tag_22\n      jumpi\n      dup3\n      swap1\n      sub\n      0x1f\n      and\n      dup3\n      add\n      swap2\n    tag_20:\n      pop\n      pop\n      pop\n      pop\n      pop\n      swap1\n      pop\n      dup3\n      jump\t// out\n        /* \"contracts/Tut2.sol\":184:308  function addPerson(uint256 _favNumber, string memory _name) public {\r... */\n    tag_14:\n        /* \"contracts/Tut2.sol\":262:268  people */\n      0x00\n        /* \"contracts/Tut2.sol\":274:299  Person(_favNumber, _name) */\n      mload(0x40)\n      dup1\n      0x40\n      add\n      0x40\n      mstore\n      dup1\n        /* \"contracts/Tut2.sol\":281:291  _favNumber */\n      dup5\n        /* \"contracts/Tut2.sol\":274:299  Person(_favNumber, _name) */\n      dup2\n      mstore\n      0x20\n      add\n        /* \"contracts/Tut2.sol\":293:298  _name */\n      dup4\n        /* \"contracts/Tut2.sol\":274:299  Person(_favNumber, _name) */\n      dup2\n      mstore\n      pop\n        /* \"contracts/Tut2.sol\":262:300  people.push(Person(_favNumber, _name)) */\n      swap1\n      dup1\n      0x01\n      dup2\n      sload\n      add\n      dup1\n      dup3\n      sstore\n      dup1\n      swap2\n      pop\n      pop\n      0x01\n      swap1\n      sub\n      swap1\n      0x00\n      mstore\n      keccak256(0x00, 0x20)\n      swap1\n      0x02\n      mul\n      add\n      0x00\n      swap1\n      swap2\n      swap1\n      swap2\n      swap1\n      swap2\n      pop\n      0x00\n      dup3\n      add\n      mload\n      dup2\n      0x00\n      add\n      sstore\n      0x20\n      dup3\n      add\n      mload\n      dup2\n      0x01\n      add\n      swap1\n      dup1\n      mload\n      swap1\n      0x20\n      add\n      swap1\n      tag_25\n      swap3\n      swap2\n      swap1\n      tag_26\n      jump\t// in\n    tag_25:\n      pop\n      pop\n      pop\n        /* \"contracts/Tut2.sol\":184:308  function addPerson(uint256 _favNumber, string memory _name) public {\r... */\n      pop\n      pop\n      jump\t// out\n    tag_26:\n      dup3\n      dup1\n      sload\n      tag_27\n      swap1\n      tag_18\n      jump\t// in\n    tag_27:\n      swap1\n      0x00\n      mstore\n      keccak256(0x00, 0x20)\n      swap1\n      0x1f\n      add\n      0x20\n      swap1\n      div\n      dup2\n      add\n      swap3\n      dup3\n      tag_29\n      jumpi\n      0x00\n      dup6\n      sstore\n      jump(tag_28)\n    tag_29:\n      dup3\n      0x1f\n      lt\n      tag_30\n      jumpi\n      dup1\n      mload\n      not(0xff)\n      and\n      dup4\n      dup1\n      add\n      or\n      dup6\n      sstore\n      jump(tag_28)\n    tag_30:\n      dup3\n      dup1\n      add\n      0x01\n      add\n      dup6\n      sstore\n      dup3\n      iszero\n      tag_28\n      jumpi\n      swap2\n      dup3\n      add\n    tag_31:\n      dup3\n      dup2\n      gt\n      iszero\n      tag_32\n      jumpi\n      dup3\n      mload\n      dup3\n      sstore\n      swap2\n      0x20\n      add\n      swap2\n      swap1\n      0x01\n      add\n      swap1\n      jump(tag_31)\n    tag_32:\n    tag_28:\n      pop\n      swap1\n      pop\n      tag_33\n      swap2\n      swap1\n      tag_34\n      jump\t// in\n    tag_33:\n      pop\n      swap1\n      jump\t// out\n    tag_34:\n    tag_35:\n      dup1\n      dup3\n      gt\n      iszero\n      tag_36\n      jumpi\n      0x00\n      dup2\n      0x00\n      swap1\n      sstore\n      pop\n      0x01\n      add\n      jump(tag_35)\n    tag_36:\n      pop\n      swap1\n      jump\t// out\n        /* \"#utility.yul\":7:419   */\n    tag_38:\n        /* \"#utility.yul\":85:90   */\n      0x00\n        /* \"#utility.yul\":110:176   */\n      tag_40\n        /* \"#utility.yul\":126:175   */\n      tag_41\n        /* \"#utility.yul\":168:174   */\n      dup5\n        /* \"#utility.yul\":126:175   */\n      tag_42\n      jump\t// in\n    tag_41:\n        /* \"#utility.yul\":110:176   */\n      tag_43\n      jump\t// in\n    tag_40:\n        /* \"#utility.yul\":101:176   */\n      swap1\n      pop\n        /* \"#utility.yul\":199:205   */\n      dup3\n        /* \"#utility.yul\":192:197   */\n      dup2\n        /* \"#utility.yul\":185:206   */\n      mstore\n        /* \"#utility.yul\":237:241   */\n      0x20\n        /* \"#utility.yul\":230:235   */\n      dup2\n        /* \"#utility.yul\":226:242   */\n      add\n        /* \"#utility.yul\":275:278   */\n      dup5\n        /* \"#utility.yul\":266:272   */\n      dup5\n        /* \"#utility.yul\":261:264   */\n      dup5\n        /* \"#utility.yul\":257:273   */\n      add\n        /* \"#utility.yul\":254:279   */\n      gt\n        /* \"#utility.yul\":251:363   */\n      iszero\n      tag_44\n      jumpi\n        /* \"#utility.yul\":282:361   */\n      tag_45\n      tag_46\n      jump\t// in\n    tag_45:\n        /* \"#utility.yul\":251:363   */\n    tag_44:\n        /* \"#utility.yul\":372:413   */\n      tag_47\n        /* \"#utility.yul\":406:412   */\n      dup5\n        /* \"#utility.yul\":401:404   */\n      dup3\n        /* \"#utility.yul\":396:399   */\n      dup6\n        /* \"#utility.yul\":372:413   */\n      tag_48\n      jump\t// in\n    tag_47:\n        /* \"#utility.yul\":91:419   */\n      pop\n        /* \"#utility.yul\":7:419   */\n      swap4\n      swap3\n      pop\n      pop\n      pop\n      jump\t// out\n        /* \"#utility.yul\":439:779   */\n    tag_49:\n        /* \"#utility.yul\":495:500   */\n      0x00\n        /* \"#utility.yul\":544:547   */\n      dup3\n        /* \"#utility.yul\":537:541   */\n      0x1f\n        /* \"#utility.yul\":529:535   */\n      dup4\n        /* \"#utility.yul\":525:542   */\n      add\n        /* \"#utility.yul\":521:548   */\n      slt\n        /* \"#utility.yul\":511:633   */\n      tag_51\n      jumpi\n        /* \"#utility.yul\":552:631   */\n      tag_52\n      tag_53\n      jump\t// in\n    tag_52:\n        /* \"#utility.yul\":511:633   */\n    tag_51:\n        /* \"#utility.yul\":669:675   */\n      dup2\n        /* \"#utility.yul\":656:676   */\n      calldataload\n        /* \"#utility.yul\":694:773   */\n      tag_54\n        /* \"#utility.yul\":769:772   */\n      dup5\n        /* \"#utility.yul\":761:767   */\n      dup3\n        /* \"#utility.yul\":754:758   */\n      0x20\n        /* \"#utility.yul\":746:752   */\n      dup7\n        /* \"#utility.yul\":742:759   */\n      add\n        /* \"#utility.yul\":694:773   */\n      tag_38\n      jump\t// in\n    tag_54:\n        /* \"#utility.yul\":685:773   */\n      swap2\n      pop\n        /* \"#utility.yul\":501:779   */\n      pop\n        /* \"#utility.yul\":439:779   */\n      swap3\n      swap2\n      pop\n      pop\n      jump\t// out\n        /* \"#utility.yul\":785:924   */\n    tag_55:\n        /* \"#utility.yul\":831:836   */\n      0x00\n        /* \"#utility.yul\":869:875   */\n      dup2\n        /* \"#utility.yul\":856:876   */\n      calldataload\n        /* \"#utility.yul\":847:876   */\n      swap1\n      pop\n        /* \"#utility.yul\":885:918   */\n      tag_57\n        /* \"#utility.yul\":912:917   */\n      dup2\n        /* \"#utility.yul\":885:918   */\n      tag_58\n      jump\t// in\n    tag_57:\n        /* \"#utility.yul\":785:924   */\n      swap3\n      swap2\n      pop\n      pop\n      jump\t// out\n        /* \"#utility.yul\":930:1259   */\n    tag_7:\n        /* \"#utility.yul\":989:995   */\n      0x00\n        /* \"#utility.yul\":1038:1040   */\n      0x20\n        /* \"#utility.yul\":1026:1035   */\n      dup3\n        /* \"#utility.yul\":1017:1024   */\n      dup5\n        /* \"#utility.yul\":1013:1036   */\n      sub\n        /* \"#utility.yul\":1009:1041   */\n      slt\n        /* \"#utility.yul\":1006:1125   */\n      iszero\n      tag_60\n      jumpi\n        /* \"#utility.yul\":1044:1123   */\n      tag_61\n      tag_62\n      jump\t// in\n    tag_61:\n        /* \"#utility.yul\":1006:1125   */\n    tag_60:\n        /* \"#utility.yul\":1164:1165   */\n      0x00\n        /* \"#utility.yul\":1189:1242   */\n      tag_63\n        /* \"#utility.yul\":1234:1241   */\n      dup5\n        /* \"#utility.yul\":1225:1231   */\n      dup3\n        /* \"#utility.yul\":1214:1223   */\n      dup6\n        /* \"#utility.yul\":1210:1232   */\n      add\n        /* \"#utility.yul\":1189:1242   */\n      tag_55\n      jump\t// in\n    tag_63:\n        /* \"#utility.yul\":1179:1242   */\n      swap2\n      pop\n        /* \"#utility.yul\":1135:1252   */\n      pop\n        /* \"#utility.yul\":930:1259   */\n      swap3\n      swap2\n      pop\n      pop\n      jump\t// out\n        /* \"#utility.yul\":1265:1919   */\n    tag_13:\n        /* \"#utility.yul\":1343:1349   */\n      0x00\n        /* \"#utility.yul\":1351:1357   */\n      dup1\n        /* \"#utility.yul\":1400:1402   */\n      0x40\n        /* \"#utility.yul\":1388:1397   */\n      dup4\n        /* \"#utility.yul\":1379:1386   */\n      dup6\n        /* \"#utility.yul\":1375:1398   */\n      sub\n        /* \"#utility.yul\":1371:1403   */\n      slt\n        /* \"#utility.yul\":1368:1487   */\n      iszero\n      tag_65\n      jumpi\n        /* \"#utility.yul\":1406:1485   */\n      tag_66\n      tag_62\n      jump\t// in\n    tag_66:\n        /* \"#utility.yul\":1368:1487   */\n    tag_65:\n        /* \"#utility.yul\":1526:1527   */\n      0x00\n        /* \"#utility.yul\":1551:1604   */\n      tag_67\n        /* \"#utility.yul\":1596:1603   */\n      dup6\n        /* \"#utility.yul\":1587:1593   */\n      dup3\n        /* \"#utility.yul\":1576:1585   */\n      dup7\n        /* \"#utility.yul\":1572:1594   */\n      add\n        /* \"#utility.yul\":1551:1604   */\n      tag_55\n      jump\t// in\n    tag_67:\n        /* \"#utility.yul\":1541:1604   */\n      swap3\n      pop\n        /* \"#utility.yul\":1497:1614   */\n      pop\n        /* \"#utility.yul\":1681:1683   */\n      0x20\n        /* \"#utility.yul\":1670:1679   */\n      dup4\n        /* \"#utility.yul\":1666:1684   */\n      add\n        /* \"#utility.yul\":1653:1685   */\n      calldataload\n        /* \"#utility.yul\":1712:1730   */\n      0xffffffffffffffff\n        /* \"#utility.yul\":1704:1710   */\n      dup2\n        /* \"#utility.yul\":1701:1731   */\n      gt\n        /* \"#utility.yul\":1698:1815   */\n      iszero\n      tag_68\n      jumpi\n        /* \"#utility.yul\":1734:1813   */\n      tag_69\n      tag_70\n      jump\t// in\n    tag_69:\n        /* \"#utility.yul\":1698:1815   */\n    tag_68:\n        /* \"#utility.yul\":1839:1902   */\n      tag_71\n        /* \"#utility.yul\":1894:1901   */\n      dup6\n        /* \"#utility.yul\":1885:1891   */\n      dup3\n        /* \"#utility.yul\":1874:1883   */\n      dup7\n        /* \"#utility.yul\":1870:1892   */\n      add\n        /* \"#utility.yul\":1839:1902   */\n      tag_49\n      jump\t// in\n    tag_71:\n        /* \"#utility.yul\":1829:1902   */\n      swap2\n      pop\n        /* \"#utility.yul\":1624:1912   */\n      pop\n        /* \"#utility.yul\":1265:1919   */\n      swap3\n      pop\n      swap3\n      swap1\n      pop\n      jump\t// out\n        /* \"#utility.yul\":1925:2289   */\n    tag_72:\n        /* \"#utility.yul\":2013:2016   */\n      0x00\n        /* \"#utility.yul\":2041:2080   */\n      tag_74\n        /* \"#utility.yul\":2074:2079   */\n      dup3\n        /* \"#utility.yul\":2041:2080   */\n      tag_75\n      jump\t// in\n    tag_74:\n        /* \"#utility.yul\":2096:2167   */\n      tag_76\n        /* \"#utility.yul\":2160:2166   */\n      dup2\n        /* \"#utility.yul\":2155:2158   */\n      dup6\n        /* \"#utility.yul\":2096:2167   */\n      tag_77\n      jump\t// in\n    tag_76:\n        /* \"#utility.yul\":2089:2167   */\n      swap4\n      pop\n        /* \"#utility.yul\":2176:2228   */\n      tag_78\n        /* \"#utility.yul\":2221:2227   */\n      dup2\n        /* \"#utility.yul\":2216:2219   */\n      dup6\n        /* \"#utility.yul\":2209:2213   */\n      0x20\n        /* \"#utility.yul\":2202:2207   */\n      dup7\n        /* \"#utility.yul\":2198:2214   */\n      add\n        /* \"#utility.yul\":2176:2228   */\n      tag_79\n      jump\t// in\n    tag_78:\n        /* \"#utility.yul\":2253:2282   */\n      tag_80\n        /* \"#utility.yul\":2275:2281   */\n      dup2\n        /* \"#utility.yul\":2253:2282   */\n      tag_81\n      jump\t// in\n    tag_80:\n        /* \"#utility.yul\":2248:2251   */\n      dup5\n        /* \"#utility.yul\":2244:2283   */\n      add\n        /* \"#utility.yul\":2237:2283   */\n      swap2\n      pop\n        /* \"#utility.yul\":2017:2289   */\n      pop\n        /* \"#utility.yul\":1925:2289   */\n      swap3\n      swap2\n      pop\n      pop\n      jump\t// out\n        /* \"#utility.yul\":2295:2413   */\n    tag_82:\n        /* \"#utility.yul\":2382:2406   */\n      tag_84\n        /* \"#utility.yul\":2400:2405   */\n      dup2\n        /* \"#utility.yul\":2382:2406   */\n      tag_85\n      jump\t// in\n    tag_84:\n        /* \"#utility.yul\":2377:2380   */\n      dup3\n        /* \"#utility.yul\":2370:2407   */\n      mstore\n        /* \"#utility.yul\":2295:2413   */\n      pop\n      pop\n      jump\t// out\n        /* \"#utility.yul\":2419:2842   */\n    tag_10:\n        /* \"#utility.yul\":2560:2564   */\n      0x00\n        /* \"#utility.yul\":2598:2600   */\n      0x40\n        /* \"#utility.yul\":2587:2596   */\n      dup3\n        /* \"#utility.yul\":2583:2601   */\n      add\n        /* \"#utility.yul\":2575:2601   */\n      swap1\n      pop\n        /* \"#utility.yul\":2611:2682   */\n      tag_87\n        /* \"#utility.yul\":2679:2680   */\n      0x00\n        /* \"#utility.yul\":2668:2677   */\n      dup4\n        /* \"#utility.yul\":2664:2681   */\n      add\n        /* \"#utility.yul\":2655:2661   */\n      dup6\n        /* \"#utility.yul\":2611:2682   */\n      tag_82\n      jump\t// in\n    tag_87:\n        /* \"#utility.yul\":2729:2738   */\n      dup2\n        /* \"#utility.yul\":2723:2727   */\n      dup2\n        /* \"#utility.yul\":2719:2739   */\n      sub\n        /* \"#utility.yul\":2714:2716   */\n      0x20\n        /* \"#utility.yul\":2703:2712   */\n      dup4\n        /* \"#utility.yul\":2699:2717   */\n      add\n        /* \"#utility.yul\":2692:2740   */\n      mstore\n        /* \"#utility.yul\":2757:2835   */\n      tag_88\n        /* \"#utility.yul\":2830:2834   */\n      dup2\n        /* \"#utility.yul\":2821:2827   */\n      dup5\n        /* \"#utility.yul\":2757:2835   */\n      tag_72\n      jump\t// in\n    tag_88:\n        /* \"#utility.yul\":2749:2835   */\n      swap1\n      pop\n        /* \"#utility.yul\":2419:2842   */\n      swap4\n      swap3\n      pop\n      pop\n      pop\n      jump\t// out\n        /* \"#utility.yul\":2848:2977   */\n    tag_43:\n        /* \"#utility.yul\":2882:2888   */\n      0x00\n        /* \"#utility.yul\":2909:2929   */\n      tag_90\n      tag_91\n      jump\t// in\n    tag_90:\n        /* \"#utility.yul\":2899:2929   */\n      swap1\n      pop\n        /* \"#utility.yul\":2938:2971   */\n      tag_92\n        /* \"#utility.yul\":2966:2970   */\n      dup3\n        /* \"#utility.yul\":2958:2964   */\n      dup3\n        /* \"#utility.yul\":2938:2971   */\n      tag_93\n      jump\t// in\n    tag_92:\n        /* \"#utility.yul\":2848:2977   */\n      swap2\n      swap1\n      pop\n      jump\t// out\n        /* \"#utility.yul\":2983:3058   */\n    tag_91:\n        /* \"#utility.yul\":3016:3022   */\n      0x00\n        /* \"#utility.yul\":3049:3051   */\n      0x40\n        /* \"#utility.yul\":3043:3052   */\n      mload\n        /* \"#utility.yul\":3033:3052   */\n      swap1\n      pop\n        /* \"#utility.yul\":2983:3058   */\n      swap1\n      jump\t// out\n        /* \"#utility.yul\":3064:3372   */\n    tag_42:\n        /* \"#utility.yul\":3126:3130   */\n      0x00\n        /* \"#utility.yul\":3216:3234   */\n      0xffffffffffffffff\n        /* \"#utility.yul\":3208:3214   */\n      dup3\n        /* \"#utility.yul\":3205:3235   */\n      gt\n        /* \"#utility.yul\":3202:3258   */\n      iszero\n      tag_96\n      jumpi\n        /* \"#utility.yul\":3238:3256   */\n      tag_97\n      tag_98\n      jump\t// in\n    tag_97:\n        /* \"#utility.yul\":3202:3258   */\n    tag_96:\n        /* \"#utility.yul\":3276:3305   */\n      tag_99\n        /* \"#utility.yul\":3298:3304   */\n      dup3\n        /* \"#utility.yul\":3276:3305   */\n      tag_81\n      jump\t// in\n    tag_99:\n        /* \"#utility.yul\":3268:3305   */\n      swap1\n      pop\n        /* \"#utility.yul\":3360:3364   */\n      0x20\n        /* \"#utility.yul\":3354:3358   */\n      dup2\n        /* \"#utility.yul\":3350:3365   */\n      add\n        /* \"#utility.yul\":3342:3365   */\n      swap1\n      pop\n        /* \"#utility.yul\":3064:3372   */\n      swap2\n      swap1\n      pop\n      jump\t// out\n        /* \"#utility.yul\":3378:3477   */\n    tag_75:\n        /* \"#utility.yul\":3430:3436   */\n      0x00\n        /* \"#utility.yul\":3464:3469   */\n      dup2\n        /* \"#utility.yul\":3458:3470   */\n      mload\n        /* \"#utility.yul\":3448:3470   */\n      swap1\n      pop\n        /* \"#utility.yul\":3378:3477   */\n      swap2\n      swap1\n      pop\n      jump\t// out\n        /* \"#utility.yul\":3483:3652   */\n    tag_77:\n        /* \"#utility.yul\":3567:3578   */\n      0x00\n        /* \"#utility.yul\":3601:3607   */\n      dup3\n        /* \"#utility.yul\":3596:3599   */\n      dup3\n        /* \"#utility.yul\":3589:3608   */\n      mstore\n        /* \"#utility.yul\":3641:3645   */\n      0x20\n        /* \"#utility.yul\":3636:3639   */\n      dup3\n        /* \"#utility.yul\":3632:3646   */\n      add\n        /* \"#utility.yul\":3617:3646   */\n      swap1\n      pop\n        /* \"#utility.yul\":3483:3652   */\n      swap3\n      swap2\n      pop\n      pop\n      jump\t// out\n        /* \"#utility.yul\":3658:3735   */\n    tag_85:\n        /* \"#utility.yul\":3695:3702   */\n      0x00\n        /* \"#utility.yul\":3724:3729   */\n      dup2\n        /* \"#utility.yul\":3713:3729   */\n      swap1\n      pop\n        /* \"#utility.yul\":3658:3735   */\n      swap2\n      swap1\n      pop\n      jump\t// out\n        /* \"#utility.yul\":3741:3895   */\n    tag_48:\n        /* \"#utility.yul\":3825:3831   */\n      dup3\n        /* \"#utility.yul\":3820:3823   */\n      dup2\n        /* \"#utility.yul\":3815:3818   */\n      dup4\n        /* \"#utility.yul\":3802:3832   */\n      calldatacopy\n        /* \"#utility.yul\":3887:3888   */\n      0x00\n        /* \"#utility.yul\":3878:3884   */\n      dup4\n        /* \"#utility.yul\":3873:3876   */\n      dup4\n        /* \"#utility.yul\":3869:3885   */\n      add\n        /* \"#utility.yul\":3862:3889   */\n      mstore\n        /* \"#utility.yul\":3741:3895   */\n      pop\n      pop\n      pop\n      jump\t// out\n        /* \"#utility.yul\":3901:4208   */\n    tag_79:\n        /* \"#utility.yul\":3969:3970   */\n      0x00\n        /* \"#utility.yul\":3979:4092   */\n    tag_105:\n        /* \"#utility.yul\":3993:3999   */\n      dup4\n        /* \"#utility.yul\":3990:3991   */\n      dup2\n        /* \"#utility.yul\":3987:4000   */\n      lt\n        /* \"#utility.yul\":3979:4092   */\n      iszero\n      tag_107\n      jumpi\n        /* \"#utility.yul\":4078:4079   */\n      dup1\n        /* \"#utility.yul\":4073:4076   */\n      dup3\n        /* \"#utility.yul\":4069:4080   */\n      add\n        /* \"#utility.yul\":4063:4081   */\n      mload\n        /* \"#utility.yul\":4059:4060   */\n      dup2\n        /* \"#utility.yul\":4054:4057   */\n      dup5\n        /* \"#utility.yul\":4050:4061   */\n      add\n        /* \"#utility.yul\":4043:4082   */\n      mstore\n        /* \"#utility.yul\":4015:4017   */\n      0x20\n        /* \"#utility.yul\":4012:4013   */\n      dup2\n        /* \"#utility.yul\":4008:4018   */\n      add\n        /* \"#utility.yul\":4003:4018   */\n      swap1\n      pop\n        /* \"#utility.yul\":3979:4092   */\n      jump(tag_105)\n    tag_107:\n        /* \"#utility.yul\":4110:4116   */\n      dup4\n        /* \"#utility.yul\":4107:4108   */\n      dup2\n        /* \"#utility.yul\":4104:4117   */\n      gt\n        /* \"#utility.yul\":4101:4202   */\n      iszero\n      tag_108\n      jumpi\n        /* \"#utility.yul\":4190:4191   */\n      0x00\n        /* \"#utility.yul\":4181:4187   */\n      dup5\n        /* \"#utility.yul\":4176:4179   */\n      dup5\n        /* \"#utility.yul\":4172:4188   */\n      add\n        /* \"#utility.yul\":4165:4192   */\n      mstore\n        /* \"#utility.yul\":4101:4202   */\n    tag_108:\n        /* \"#utility.yul\":3950:4208   */\n      pop\n        /* \"#utility.yul\":3901:4208   */\n      pop\n      pop\n      pop\n      jump\t// out\n        /* \"#utility.yul\":4214:4534   */\n    tag_18:\n        /* \"#utility.yul\":4258:4264   */\n      0x00\n        /* \"#utility.yul\":4295:4296   */\n      0x02\n        /* \"#utility.yul\":4289:4293   */\n      dup3\n        /* \"#utility.yul\":4285:4297   */\n      div\n        /* \"#utility.yul\":4275:4297   */\n      swap1\n      pop\n        /* \"#utility.yul\":4342:4343   */\n      0x01\n        /* \"#utility.yul\":4336:4340   */\n      dup3\n        /* \"#utility.yul\":4332:4344   */\n      and\n        /* \"#utility.yul\":4363:4381   */\n      dup1\n        /* \"#utility.yul\":4353:4434   */\n      tag_110\n      jumpi\n        /* \"#utility.yul\":4419:4423   */\n      0x7f\n        /* \"#utility.yul\":4411:4417   */\n      dup3\n        /* \"#utility.yul\":4407:4424   */\n      and\n        /* \"#utility.yul\":4397:4424   */\n      swap2\n      pop\n        /* \"#utility.yul\":4353:4434   */\n    tag_110:\n        /* \"#utility.yul\":4481:4483   */\n      0x20\n        /* \"#utility.yul\":4473:4479   */\n      dup3\n        /* \"#utility.yul\":4470:4484   */\n      lt\n        /* \"#utility.yul\":4450:4468   */\n      dup2\n        /* \"#utility.yul\":4447:4485   */\n      eq\n        /* \"#utility.yul\":4444:4528   */\n      iszero\n      tag_111\n      jumpi\n        /* \"#utility.yul\":4500:4518   */\n      tag_112\n      tag_113\n      jump\t// in\n    tag_112:\n        /* \"#utility.yul\":4444:4528   */\n    tag_111:\n        /* \"#utility.yul\":4265:4534   */\n      pop\n        /* \"#utility.yul\":4214:4534   */\n      swap2\n      swap1\n      pop\n      jump\t// out\n        /* \"#utility.yul\":4540:4821   */\n    tag_93:\n        /* \"#utility.yul\":4623:4650   */\n      tag_115\n        /* \"#utility.yul\":4645:4649   */\n      dup3\n        /* \"#utility.yul\":4623:4650   */\n      tag_81\n      jump\t// in\n    tag_115:\n        /* \"#utility.yul\":4615:4621   */\n      dup2\n        /* \"#utility.yul\":4611:4651   */\n      add\n        /* \"#utility.yul\":4753:4759   */\n      dup2\n        /* \"#utility.yul\":4741:4751   */\n      dup2\n        /* \"#utility.yul\":4738:4760   */\n      lt\n        /* \"#utility.yul\":4717:4735   */\n      0xffffffffffffffff\n        /* \"#utility.yul\":4705:4715   */\n      dup3\n        /* \"#utility.yul\":4702:4736   */\n      gt\n        /* \"#utility.yul\":4699:4761   */\n      or\n        /* \"#utility.yul\":4696:4784   */\n      iszero\n      tag_116\n      jumpi\n        /* \"#utility.yul\":4764:4782   */\n      tag_117\n      tag_98\n      jump\t// in\n    tag_117:\n        /* \"#utility.yul\":4696:4784   */\n    tag_116:\n        /* \"#utility.yul\":4804:4814   */\n      dup1\n        /* \"#utility.yul\":4800:4802   */\n      0x40\n        /* \"#utility.yul\":4793:4815   */\n      mstore\n        /* \"#utility.yul\":4583:4821   */\n      pop\n        /* \"#utility.yul\":4540:4821   */\n      pop\n      pop\n      jump\t// out\n        /* \"#utility.yul\":4827:5007   */\n    tag_113:\n        /* \"#utility.yul\":4875:4952   */\n      0x4e487b7100000000000000000000000000000000000000000000000000000000\n        /* \"#utility.yul\":4872:4873   */\n      0x00\n        /* \"#utility.yul\":4865:4953   */\n      mstore\n        /* \"#utility.yul\":4972:4976   */\n      0x22\n        /* \"#utility.yul\":4969:4970   */\n      0x04\n        /* \"#utility.yul\":4962:4977   */\n      mstore\n        /* \"#utility.yul\":4996:5000   */\n      0x24\n        /* \"#utility.yul\":4993:4994   */\n      0x00\n        /* \"#utility.yul\":4986:5001   */\n      revert\n        /* \"#utility.yul\":5013:5193   */\n    tag_98:\n        /* \"#utility.yul\":5061:5138   */\n      0x4e487b7100000000000000000000000000000000000000000000000000000000\n        /* \"#utility.yul\":5058:5059   */\n      0x00\n        /* \"#utility.yul\":5051:5139   */\n      mstore\n        /* \"#utility.yul\":5158:5162   */\n      0x41\n        /* \"#utility.yul\":5155:5156   */\n      0x04\n        /* \"#utility.yul\":5148:5163   */\n      mstore\n        /* \"#utility.yul\":5182:5186   */\n      0x24\n        /* \"#utility.yul\":5179:5180   */\n      0x00\n        /* \"#utility.yul\":5172:5187   */\n      revert\n        /* \"#utility.yul\":5199:5316   */\n    tag_53:\n        /* \"#utility.yul\":5308:5309   */\n      0x00\n        /* \"#utility.yul\":5305:5306   */\n      dup1\n        /* \"#utility.yul\":5298:5310   */\n      revert\n        /* \"#utility.yul\":5322:5439   */\n    tag_46:\n        /* \"#utility.yul\":5431:5432   */\n      0x00\n        /* \"#utility.yul\":5428:5429   */\n      dup1\n        /* \"#utility.yul\":5421:5433   */\n      revert\n        /* \"#utility.yul\":5445:5562   */\n    tag_70:\n        /* \"#utility.yul\":5554:5555   */\n      0x00\n        /* \"#utility.yul\":5551:5552   */\n      dup1\n        /* \"#utility.yul\":5544:5556   */\n      revert\n        /* \"#utility.yul\":5568:5685   */\n    tag_62:\n        /* \"#utility.yul\":5677:5678   */\n      0x00\n        /* \"#utility.yul\":5674:5675   */\n      dup1\n        /* \"#utility.yul\":5667:5679   */\n      revert\n        /* \"#utility.yul\":5691:5793   */\n    tag_81:\n        /* \"#utility.yul\":5732:5738   */\n      0x00\n        /* \"#utility.yul\":5783:5785   */\n      0x1f\n        /* \"#utility.yul\":5779:5786   */\n      not\n        /* \"#utility.yul\":5774:5776   */\n      0x1f\n        /* \"#utility.yul\":5767:5772   */\n      dup4\n        /* \"#utility.yul\":5763:5777   */\n      add\n        /* \"#utility.yul\":5759:5787   */\n      and\n        /* \"#utility.yul\":5749:5787   */\n      swap1\n      pop\n        /* \"#utility.yul\":5691:5793   */\n      swap2\n      swap1\n      pop\n      jump\t// out\n        /* \"#utility.yul\":5799:5921   */\n    tag_58:\n        /* \"#utility.yul\":5872:5896   */\n      tag_126\n        /* \"#utility.yul\":5890:5895   */\n      dup2\n        /* \"#utility.yul\":5872:5896   */\n      tag_85\n      jump\t// in\n    tag_126:\n        /* \"#utility.yul\":5865:5870   */\n      dup2\n        /* \"#utility.yul\":5862:5897   */\n      eq\n        /* \"#utility.yul\":5852:5915   */\n      tag_127\n      jumpi\n        /* \"#utility.yul\":5911:5912   */\n      0x00\n        /* \"#utility.yul\":5908:5909   */\n      dup1\n        /* \"#utility.yul\":5901:5913   */\n      revert\n        /* \"#utility.yul\":5852:5915   */\n    tag_127:\n        /* \"#utility.yul\":5799:5921   */\n      pop\n      jump\t// out\n\n    auxdata: 0xa26469706673582212209ff24ba619b205d3bab57e3f9a25f3c698d09d246d0bd2795b02ddfef07f155a64736f6c63430008070033\n}\n",
				"bytecode": {
					"linkReferences": {},
					"object": "608060405234801561001057600080fd5b506105cb806100206000396000f3fe608060405234801561001057600080fd5b50600436106100365760003560e01c80639e7a13ad1461003b578063bc832d4e1461006c575b600080fd5b610055600480360381019061005091906102d9565b610088565b6040516100639291906103aa565b60405180910390f35b61008660048036038101906100819190610306565b610144565b005b6000818154811061009857600080fd5b90600052602060002090600202016000915090508060000154908060010180546100c190610498565b80601f01602080910402602001604051908101604052809291908181526020018280546100ed90610498565b801561013a5780601f1061010f5761010080835404028352916020019161013a565b820191906000526020600020905b81548152906001019060200180831161011d57829003601f168201915b5050505050905082565b600060405180604001604052808481526020018381525090806001815401808255809150506001900390600052602060002090600202016000909190919091506000820151816000015560208201518160010190805190602001906101aa9291906101b1565b5050505050565b8280546101bd90610498565b90600052602060002090601f0160209004810192826101df5760008555610226565b82601f106101f857805160ff1916838001178555610226565b82800160010185558215610226579182015b8281111561022557825182559160200191906001019061020a565b5b5090506102339190610237565b5090565b5b80821115610250576000816000905550600101610238565b5090565b6000610267610262846103ff565b6103da565b9050828152602081018484840111156102835761028261055e565b5b61028e848285610456565b509392505050565b600082601f8301126102ab576102aa610559565b5b81356102bb848260208601610254565b91505092915050565b6000813590506102d38161057e565b92915050565b6000602082840312156102ef576102ee610568565b5b60006102fd848285016102c4565b91505092915050565b6000806040838503121561031d5761031c610568565b5b600061032b858286016102c4565b925050602083013567ffffffffffffffff81111561034c5761034b610563565b5b61035885828601610296565b9150509250929050565b600061036d82610430565b610377818561043b565b9350610387818560208601610465565b6103908161056d565b840191505092915050565b6103a48161044c565b82525050565b60006040820190506103bf600083018561039b565b81810360208301526103d18184610362565b90509392505050565b60006103e46103f5565b90506103f082826104ca565b919050565b6000604051905090565b600067ffffffffffffffff82111561041a5761041961052a565b5b6104238261056d565b9050602081019050919050565b600081519050919050565b600082825260208201905092915050565b6000819050919050565b82818337600083830152505050565b60005b83811015610483578082015181840152602081019050610468565b83811115610492576000848401525b50505050565b600060028204905060018216806104b057607f821691505b602082108114156104c4576104c36104fb565b5b50919050565b6104d38261056d565b810181811067ffffffffffffffff821117156104f2576104f161052a565b5b80604052505050565b7f4e487b7100000000000000000000000000000000000000000000000000000000600052602260045260246000fd5b7f4e487b7100000000000000000000000000000000000000000000000000000000600052604160045260246000fd5b600080fd5b600080fd5b600080fd5b600080fd5b6000601f19601f8301169050919050565b6105878161044c565b811461059257600080fd5b5056fea26469706673582212209ff24ba619b205d3bab57e3f9a25f3c698d09d246d0bd2795b02ddfef07f155a64736f6c63430008070033",
					"opcodes": "PUSH1 0x80 PUSH1 0x40 MSTORE CALLVALUE DUP1 ISZERO PUSH2 0x10 JUMPI PUSH1 0x0 DUP1 REVERT JUMPDEST POP PUSH2 0x5CB DUP1 PUSH2 0x20 PUSH1 0x0 CODECOPY PUSH1 0x0 RETURN INVALID PUSH1 0x80 PUSH1 0x40 MSTORE CALLVALUE DUP1 ISZERO PUSH2 0x10 JUMPI PUSH1 0x0 DUP1 REVERT JUMPDEST POP PUSH1 0x4 CALLDATASIZE LT PUSH2 0x36 JUMPI PUSH1 0x0 CALLDATALOAD PUSH1 0xE0 SHR DUP1 PUSH4 0x9E7A13AD EQ PUSH2 0x3B JUMPI DUP1 PUSH4 0xBC832D4E EQ PUSH2 0x6C JUMPI JUMPDEST PUSH1 0x0 DUP1 REVERT JUMPDEST PUSH2 0x55 PUSH1 0x4 DUP1 CALLDATASIZE SUB DUP2 ADD SWAP1 PUSH2 0x50 SWAP2 SWAP1 PUSH2 0x2D9 JUMP JUMPDEST PUSH2 0x88 JUMP JUMPDEST PUSH1 0x40 MLOAD PUSH2 0x63 SWAP3 SWAP2 SWAP1 PUSH2 0x3AA JUMP JUMPDEST PUSH1 0x40 MLOAD DUP1 SWAP2 SUB SWAP1 RETURN JUMPDEST PUSH2 0x86 PUSH1 0x4 DUP1 CALLDATASIZE SUB DUP2 ADD SWAP1 PUSH2 0x81 SWAP2 SWAP1 PUSH2 0x306 JUMP JUMPDEST PUSH2 0x144 JUMP JUMPDEST STOP JUMPDEST PUSH1 0x0 DUP2 DUP2 SLOAD DUP2 LT PUSH2 0x98 JUMPI PUSH1 0x0 DUP1 REVERT JUMPDEST SWAP1 PUSH1 0x0 MSTORE PUSH1 0x20 PUSH1 0x0 KECCAK256 SWAP1 PUSH1 0x2 MUL ADD PUSH1 0x0 SWAP2 POP SWAP1 POP DUP1 PUSH1 0x0 ADD SLOAD SWAP1 DUP1 PUSH1 0x1 ADD DUP1 SLOAD PUSH2 0xC1 SWAP1 PUSH2 0x498 JUMP JUMPDEST DUP1 PUSH1 0x1F ADD PUSH1 0x20 DUP1 SWAP2 DIV MUL PUSH1 0x20 ADD PUSH1 0x40 MLOAD SWAP1 DUP2 ADD PUSH1 0x40 MSTORE DUP1 SWAP3 SWAP2 SWAP1 DUP2 DUP2 MSTORE PUSH1 0x20 ADD DUP3 DUP1 SLOAD PUSH2 0xED SWAP1 PUSH2 0x498 JUMP JUMPDEST DUP1 ISZERO PUSH2 0x13A JUMPI DUP1 PUSH1 0x1F LT PUSH2 0x10F JUMPI PUSH2 0x100 DUP1 DUP4 SLOAD DIV MUL DUP4 MSTORE SWAP2 PUSH1 0x20 ADD SWAP2 PUSH2 0x13A JUMP JUMPDEST DUP3 ADD SWAP2 SWAP1 PUSH1 0x0 MSTORE PUSH1 0x20 PUSH1 0x0 KECCAK256 SWAP1 JUMPDEST DUP2 SLOAD DUP2 MSTORE SWAP1 PUSH1 0x1 ADD SWAP1 PUSH1 0x20 ADD DUP1 DUP4 GT PUSH2 0x11D JUMPI DUP3 SWAP1 SUB PUSH1 0x1F AND DUP3 ADD SWAP2 JUMPDEST POP POP POP POP POP SWAP1 POP DUP3 JUMP JUMPDEST PUSH1 0x0 PUSH1 0x40 MLOAD DUP1 PUSH1 0x40 ADD PUSH1 0x40 MSTORE DUP1 DUP5 DUP2 MSTORE PUSH1 0x20 ADD DUP4 DUP2 MSTORE POP SWAP1 DUP1 PUSH1 0x1 DUP2 SLOAD ADD DUP1 DUP3 SSTORE DUP1 SWAP2 POP POP PUSH1 0x1 SWAP1 SUB SWAP1 PUSH1 0x0 MSTORE PUSH1 0x20 PUSH1 0x0 KECCAK256 SWAP1 PUSH1 0x2 MUL ADD PUSH1 0x0 SWAP1 SWAP2 SWAP1 SWAP2 SWAP1 SWAP2 POP PUSH1 0x0 DUP3 ADD MLOAD DUP2 PUSH1 0x0 ADD SSTORE PUSH1 0x20 DUP3 ADD MLOAD DUP2 PUSH1 0x1 ADD SWAP1 DUP1 MLOAD SWAP1 PUSH1 0x20 ADD SWAP1 PUSH2 0x1AA SWAP3 SWAP2 SWAP1 PUSH2 0x1B1 JUMP JUMPDEST POP POP POP POP POP JUMP JUMPDEST DUP3 DUP1 SLOAD PUSH2 0x1BD SWAP1 PUSH2 0x498 JUMP JUMPDEST SWAP1 PUSH1 0x0 MSTORE PUSH1 0x20 PUSH1 0x0 KECCAK256 SWAP1 PUSH1 0x1F ADD PUSH1 0x20 SWAP1 DIV DUP2 ADD SWAP3 DUP3 PUSH2 0x1DF JUMPI PUSH1 0x0 DUP6 SSTORE PUSH2 0x226 JUMP JUMPDEST DUP3 PUSH1 0x1F LT PUSH2 0x1F8 JUMPI DUP1 MLOAD PUSH1 0xFF NOT AND DUP4 DUP1 ADD OR DUP6 SSTORE PUSH2 0x226 JUMP JUMPDEST DUP3 DUP1 ADD PUSH1 0x1 ADD DUP6 SSTORE DUP3 ISZERO PUSH2 0x226 JUMPI SWAP2 DUP3 ADD JUMPDEST DUP3 DUP2 GT ISZERO PUSH2 0x225 JUMPI DUP3 MLOAD DUP3 SSTORE SWAP2 PUSH1 0x20 ADD SWAP2 SWAP1 PUSH1 0x1 ADD SWAP1 PUSH2 0x20A JUMP JUMPDEST JUMPDEST POP SWAP1 POP PUSH2 0x233 SWAP2 SWAP1 PUSH2 0x237 JUMP JUMPDEST POP SWAP1 JUMP JUMPDEST JUMPDEST DUP1 DUP3 GT ISZERO PUSH2 0x250 JUMPI PUSH1 0x0 DUP2 PUSH1 0x0 SWAP1 SSTORE POP PUSH1 0x1 ADD PUSH2 0x238 JUMP JUMPDEST POP SWAP1 JUMP JUMPDEST PUSH1 0x0 PUSH2 0x267 PUSH2 0x262 DUP5 PUSH2 0x3FF JUMP JUMPDEST PUSH2 0x3DA JUMP JUMPDEST SWAP1 POP DUP3 DUP2 MSTORE PUSH1 0x20 DUP2 ADD DUP5 DUP5 DUP5 ADD GT ISZERO PUSH2 0x283 JUMPI PUSH2 0x282 PUSH2 0x55E JUMP JUMPDEST JUMPDEST PUSH2 0x28E DUP5 DUP3 DUP6 PUSH2 0x456 JUMP JUMPDEST POP SWAP4 SWAP3 POP POP POP JUMP JUMPDEST PUSH1 0x0 DUP3 PUSH1 0x1F DUP4 ADD SLT PUSH2 0x2AB JUMPI PUSH2 0x2AA PUSH2 0x559 JUMP JUMPDEST JUMPDEST DUP2 CALLDATALOAD PUSH2 0x2BB DUP5 DUP3 PUSH1 0x20 DUP7 ADD PUSH2 0x254 JUMP JUMPDEST SWAP2 POP POP SWAP3 SWAP2 POP POP JUMP JUMPDEST PUSH1 0x0 DUP2 CALLDATALOAD SWAP1 POP PUSH2 0x2D3 DUP2 PUSH2 0x57E JUMP JUMPDEST SWAP3 SWAP2 POP POP JUMP JUMPDEST PUSH1 0x0 PUSH1 0x20 DUP3 DUP5 SUB SLT ISZERO PUSH2 0x2EF JUMPI PUSH2 0x2EE PUSH2 0x568 JUMP JUMPDEST JUMPDEST PUSH1 0x0 PUSH2 0x2FD DUP5 DUP3 DUP6 ADD PUSH2 0x2C4 JUMP JUMPDEST SWAP2 POP POP SWAP3 SWAP2 POP POP JUMP JUMPDEST PUSH1 0x0 DUP1 PUSH1 0x40 DUP4 DUP6 SUB SLT ISZERO PUSH2 0x31D JUMPI PUSH2 0x31C PUSH2 0x568 JUMP JUMPDEST JUMPDEST PUSH1 0x0 PUSH2 0x32B DUP6 DUP3 DUP7 ADD PUSH2 0x2C4 JUMP JUMPDEST SWAP3 POP POP PUSH1 0x20 DUP4 ADD CALLDATALOAD PUSH8 0xFFFFFFFFFFFFFFFF DUP2 GT ISZERO PUSH2 0x34C JUMPI PUSH2 0x34B PUSH2 0x563 JUMP JUMPDEST JUMPDEST PUSH2 0x358 DUP6 DUP3 DUP7 ADD PUSH2 0x296 JUMP JUMPDEST SWAP2 POP POP SWAP3 POP SWAP3 SWAP1 POP JUMP JUMPDEST PUSH1 0x0 PUSH2 0x36D DUP3 PUSH2 0x430 JUMP JUMPDEST PUSH2 0x377 DUP2 DUP6 PUSH2 0x43B JUMP JUMPDEST SWAP4 POP PUSH2 0x387 DUP2 DUP6 PUSH1 0x20 DUP7 ADD PUSH2 0x465 JUMP JUMPDEST PUSH2 0x390 DUP2 PUSH2 0x56D JUMP JUMPDEST DUP5 ADD SWAP2 POP POP SWAP3 SWAP2 POP POP JUMP JUMPDEST PUSH2 0x3A4 DUP2 PUSH2 0x44C JUMP JUMPDEST DUP3 MSTORE POP POP JUMP JUMPDEST PUSH1 0x0 PUSH1 0x40 DUP3 ADD SWAP1 POP PUSH2 0x3BF PUSH1 0x0 DUP4 ADD DUP6 PUSH2 0x39B JUMP JUMPDEST DUP2 DUP2 SUB PUSH1 0x20 DUP4 ADD MSTORE PUSH2 0x3D1 DUP2 DUP5 PUSH2 0x362 JUMP JUMPDEST SWAP1 POP SWAP4 SWAP3 POP POP POP JUMP JUMPDEST PUSH1 0x0 PUSH2 0x3E4 PUSH2 0x3F5 JUMP JUMPDEST SWAP1 POP PUSH2 0x3F0 DUP3 DUP3 PUSH2 0x4CA JUMP JUMPDEST SWAP2 SWAP1 POP JUMP JUMPDEST PUSH1 0x0 PUSH1 0x40 MLOAD SWAP1 POP SWAP1 JUMP JUMPDEST PUSH1 0x0 PUSH8 0xFFFFFFFFFFFFFFFF DUP3 GT ISZERO PUSH2 0x41A JUMPI PUSH2 0x419 PUSH2 0x52A JUMP JUMPDEST JUMPDEST PUSH2 0x423 DUP3 PUSH2 0x56D JUMP JUMPDEST SWAP1 POP PUSH1 0x20 DUP2 ADD SWAP1 POP SWAP2 SWAP1 POP JUMP JUMPDEST PUSH1 0x0 DUP2 MLOAD SWAP1 POP SWAP2 SWAP1 POP JUMP JUMPDEST PUSH1 0x0 DUP3 DUP3 MSTORE PUSH1 0x20 DUP3 ADD SWAP1 POP SWAP3 SWAP2 POP POP JUMP JUMPDEST PUSH1 0x0 DUP2 SWAP1 POP SWAP2 SWAP1 POP JUMP JUMPDEST DUP3 DUP2 DUP4 CALLDATACOPY PUSH1 0x0 DUP4 DUP4 ADD MSTORE POP POP POP JUMP JUMPDEST PUSH1 0x0 JUMPDEST DUP4 DUP2 LT ISZERO PUSH2 0x483 JUMPI DUP1 DUP3 ADD MLOAD DUP2 DUP5 ADD MSTORE PUSH1 0x20 DUP2 ADD SWAP1 POP PUSH2 0x468 JUMP JUMPDEST DUP4 DUP2 GT ISZERO PUSH2 0x492 JUMPI PUSH1 0x0 DUP5 DUP5 ADD MSTORE JUMPDEST POP POP POP POP JUMP JUMPDEST PUSH1 0x0 PUSH1 0x2 DUP3 DIV SWAP1 POP PUSH1 0x1 DUP3 AND DUP1 PUSH2 0x4B0 JUMPI PUSH1 0x7F DUP3 AND SWAP2 POP JUMPDEST PUSH1 0x20 DUP3 LT DUP2 EQ ISZERO PUSH2 0x4C4 JUMPI PUSH2 0x4C3 PUSH2 0x4FB JUMP JUMPDEST JUMPDEST POP SWAP2 SWAP1 POP JUMP JUMPDEST PUSH2 0x4D3 DUP3 PUSH2 0x56D JUMP JUMPDEST DUP2 ADD DUP2 DUP2 LT PUSH8 0xFFFFFFFFFFFFFFFF DUP3 GT OR ISZERO PUSH2 0x4F2 JUMPI PUSH2 0x4F1 PUSH2 0x52A JUMP JUMPDEST JUMPDEST DUP1 PUSH1 0x40 MSTORE POP POP POP JUMP JUMPDEST PUSH32 0x4E487B7100000000000000000000000000000000000000000000000000000000 PUSH1 0x0 MSTORE PUSH1 0x22 PUSH1 0x4 MSTORE PUSH1 0x24 PUSH1 0x0 REVERT JUMPDEST PUSH32 0x4E487B7100000000000000000000000000000000000000000000000000000000 PUSH1 0x0 MSTORE PUSH1 0x41 PUSH1 0x4 MSTORE PUSH1 0x24 PUSH1 0x0 REVERT JUMPDEST PUSH1 0x0 DUP1 REVERT JUMPDEST PUSH1 0x0 DUP1 REVERT JUMPDEST PUSH1 0x0 DUP1 REVERT JUMPDEST PUSH1 0x0 DUP1 REVERT JUMPDEST PUSH1 0x0 PUSH1 0x1F NOT PUSH1 0x1F DUP4 ADD AND SWAP1 POP SWAP2 SWAP1 POP JUMP JUMPDEST PUSH2 0x587 DUP2 PUSH2 0x44C JUMP JUMPDEST DUP2 EQ PUSH2 0x592 JUMPI PUSH1 0x0 DUP1 REVERT JUMPDEST POP JUMP INVALID LOG2 PUSH5 0x6970667358 0x22 SLT KECCAK256 SWAP16 CALLCODE 0x4B 0xA6 NOT 0xB2 SDIV 0xD3 0xBA 0xB5 PUSH31 0x3F9A25F3C698D09D246D0BD2795B02DDFEF07F155A64736F6C634300080700 CALLER "
				},
				"gasEstimates": {
					"creation": {
						"codeDepositCost": "296600",
						"executionCost": "337",
						"totalCost": "296937"
					},
					"external": {
						"addPerson(uint256,string)": "infinite",
						"people(uint256)": "infinite"
					}
				},
				"methodIdentifiers": {
					"addPerson(uint256,string)": "bc832d4e",
					"people(uint256)": "9e7a13ad"
				}
			},
			"storageLayout": {
				"storage": [
					{
						"astId": 10,
						"contract": "contracts/Tut2.sol:tut2",
						"label": "people",
						"offset": 0,
						"slot": "0",
						"type": "t_array(t_struct(Person)6_storage)dyn_storage"
					}
				],
				"types": {
					"t_array(t_struct(Person)6_storage)dyn_storage": {
						"base": "t_struct(Person)6_storage",
						"encoding": "dynamic_array",
						"label": "struct tut2.Person[]",
						"numberOfBytes": "32"
					},
					"t_string_storage": {
						"encoding": "bytes",
						"label": "string",
						"numberOfBytes": "32"
					},
					"t_struct(Person)6_storage": {
						"encoding": "inplace",
						"label": "struct tut2.Person",
						"members": [
							{
								"astId": 3,
								"contract": "contracts/Tut2.sol:tut2",
								"label": "favNum",
								"offset": 0,
								"slot": "0",
								"type": "t_uint256"
							},
							{
								"astId": 5,
								"contract": "contracts/Tut2.sol:tut2",
								"label": "name",
								"offset": 0,
								"slot": "1",
								"type": "t_string_storage"
							}
						],
						"numberOfBytes": "64"
					},
					"t_uint256": {
						"encoding": "inplace",
						"label": "uint256",
						"numberOfBytes": "32"
					}
				}
			},
			"userdoc": {
				"kind": "user",
				"methods": {},
				"version": 1
			}
		}
	}
}